:0400000006EF00F017
:10000800C9EFFEF0D3ECFEF098ECFEF0FBECFEF04E
:0800180000ECFFF00CEF00F01A
:020000040001F9
:10FD000041424344454647414142434445464741B9
:10FD10001B01FC00EE00D300BC00B1009E008D0072
:10FD20008D007E00760069005E0058004F0046009E
:10FD300092800F0125810001010EC26E300EC16E4E
:10FD4000760EC06E1200000EC26E000EC16E000E66
:10FD5000C06E1200C2B21200C450166EC2821200EF
:10FD6000912A1200916A1200AAECFEF0132A165191
:10FD7000136014C091FF010E136415C091FF1200AF
:10FD8000800E166EFF0E146E000E156E15C091FFDC
:10FD90001200B7A21100B792B4ECFEF0000E836E11
:10FDA000030E836E1100956A9A6A8C6A916A030E3B
:10FDB000836E010ECD6E2C93010E2C6F0B0E776EA1
:10FDC000EE0E786E000E796EB682F28EF28CC0EC7A
:10FDD000FEF01200126F010EF86EFD0EF76E100E9F
:10FDE000F66E1251F626F6220900F5CF78FF0900CB
:10FDF000F5CF79FF12007F9C7F8E030E056F1200F6
:10FE00000DECFFF030ECFFF0066F000E0662120002
:10FE100034ECFFF04AECFFF01200000E026F000E0F
:10FE2000016F0F01538D8D6A00010F0E966E010E4A
:10FE3000EAECFFF0000E846E84CF01F00F0E011B80
:10FE4000000E01651200F00E966E010EEAECFFF056
:10FE5000000E846E84CF02F0023B0F0E021B1200D4
:10FE6000000E0165010C000C010E046FD8900133E7
:10FE7000D8900233040E026105C002F0040E016145
:10FE800005C001F00251022502250225D89001216A
:10FE9000036E12000351EAECFEF01200010EF86E40
:10FEA000FD0EF76E000EF66E0351F626010EA6EC5F
:10FEB000FFF00351EAECFEF012008A6AC00E936E66
:10FEC000280EEAECFFF0300EB9ECFFF00A0EF1EC70
:10FED000FFF0280EB9ECFFF00A0EF1ECFFF0280E4F
:10FEE000B9ECFFF00A0EF1ECFFF00F0EB9ECFFF0E9
:10FEF0000A0EF1ECFFF0010EB9ECFFF0020EEAEC95
:10FF0000FFF0060EB9ECFFF00A0EF1ECFFF0100E58
:10FF10000C6E1200010EB9ECFFF0020EEAECFFF0DD
:10FF2000060EB9ECFFF00A0EF1ECFFF01200176EAE
:10FF300017389CECFFF017500F0B0A6E0A0E0A6080
:10FF4000070F260F0A24C7ECFFF012000B6E090002
:10FF5000F5CFEEFFDE50C7ECFFF00B2EF8D70A0E00
:10FF6000EAECFFF00C4E01D01200C00EB9ECFFF02D
:10FF700012000A6E0A380F0B8A6E8A98D8ECFFF0CE
:10FF80000A500F0B8A6E8A98D8ECFFF012000A6EA6
:10FF90000A380F0B8A6E8A88D8ECFFF00A500F0BD4
:10FFA0008A6E8A88D8ECFFF00A0EF1ECFFF012009E
:10FFB0000000000000000000000000000000000041
:10FFC0008A8A00000000000000000000000000001D
:10FFD0008A9A1200096EFA0EF1ECFFF0092EFBD797
:10FFE0001200076E073A0F0E0714086EF00E071680
:10FFF000FBECFFF01200000E0706085AFDE21200AB
:020000040030CA
:0700000015137F00B98B917D
:06000800FFC0FFE0FF4015
:00000001FF
