:0400000006EF00F017
:10000800A0EFFEF0AAECFEF0E1ECFEF008EF00F045
:020000040001F9
:10FCC40041424344454647414142434445464741F6
:10FCD40092800F0125810001010EC26E300EC16EAB
:10FCE400F60EC06E1200C282C2B2FED712001B0111
:10FCF400FC00EE00D300BC00B1009E008D008D001E
:10FD04007E00760069005E0058004F004600912A8C
:10FD14001200916A1200172A1A51176018C091FF35
:10FD2400010E176419C091FF1200C80E1A6EFF0E5F
:10FD3400186E000E196E19C091FF1200B7A21100BF
:10FD4400B7928DECFEF0000E836E030E836E1100ED
:10FD5400956A9A6A8C6A916A030E836E010ECD6E5F
:10FD64002C93010E2C6F0B0E776EEE0E786E000E38
:10FD7400796EB682F28EF28C97ECFEF01200166F5A
:10FD8400010EF86EFC0EF76EF20EF66E1651F626A4
:10FD9400F6220900F5CF78FF0900F5CF79FF1200AC
:10FDA400116E113A010E1114126E010E1116DCECD3
:10FDB400FEF01200000E1106125AFDE212007F9CA2
:10FDC4007F8E030E066FEAEFFEF0000E056E120042
:10FDD400E7ECFEF0F7ECFEF01AECFFF01EECFFF09F
:10FDE40034ECFFF0EAEFFEF01200000E036F000E99
:10FDF400026F0F01538D8D6A00010F0E966E010E76
:10FE040047ECFFF0000E846E84CF02F00F0E021B4D
:10FE1400000E02651200F00E966E010E47ECFFF024
:10FE2400000E846E84CF03F0033B0F0E031B1200FD
:10FE3400000E0265CAD7010C010E056FD89002337B
:10FE4400D8900333040E036106C003F0040E02616C
:10FE540006C002F00351032503250325D89002218F
:10FE6400046E12000451C1ECFEF01200010EF86E93
:10FE7400FC0EF76EC40EF66E0451F626010EA6ECC7
:10FE8400FFF00451C1ECFEF01200096EFA0E4EECC4
:10FE9400FFF0092EFBD71200076E073A0F0E071466
:10FEA400086EF00E071658ECFFF01200000E07065D
:10FEB400085AFDE212008A6AC00E936E280EEAEC1C
:10FEC400FFF0300EB9ECFFF00A0EF1ECFFF0280E53
:10FED400B9ECFFF00A0EF1ECFFF0280EB9ECFFF0DC
:10FEE4000A0EF1ECFFF00F0EB9ECFFF00A0EF1EC84
:10FEF400FFF0010EB9ECFFF0020EEAECFFF0060E83
:10FF0400B9ECFFF00A0EF1ECFFF0100E106E1200C7
:10FF1400010EB9ECFFF0020EEAECFFF0060EB9ECAC
:10FF2400FFF00A0EF1ECFFF012001B6E1B389CEC84
:10FF3400FFF01B500F0B0E6E0A0E0E60070F260FFC
:10FF44000E24C7ECFFF012000F6E0900F5CFEEFF90
:10FF5400DE50C7ECFFF00F2EF8D70A0EEAECFFF0E4
:10FF6400104E01D01200C00EB9ECFFF012000E6E5C
:10FF74000E380F0B8A6E8A98D8ECFFF00E500F0BD8
:10FF84008A6E8A98D8ECFFF012000E6E0E380F0BB2
:10FF94008A6E8A88D8ECFFF00E500F0B8A6E8A881E
:10FFA400D8ECFFF00A0EF1ECFFF0120000000000A4
:10FFB4000000000000000000000000008A8A000029
:10FFC4000000000000000000000000008A9A1200F7
:10FFD4000D6EFA0EF1ECFFF00D2EFBD712000B6E36
:10FFE4000B3A0F0E0B140C6EF00E0B16FBECFFF01D
:0CFFF4001200000E0B060C5AFDE2120079
:020000040030CA
:0700000015137F00B98B917D
:06000800FFC0FFE0FF4015
:00000001FF
