:0400000006EF00F017
:08000800D1EFFEF07BECFFF0EC
:020000040001F9
:10FD920031323346343536453738394441304243BF
:10FDA200F2A41100F294040E166F912A000E836ED3
:10FDB200030E836E162FD6EFFEF01100956A9A6A33
:10FDC2008C6A916A030E836EC80ED56EF28AF28E29
:10FDD2001200116E113A010E1114126E010E11165B
:10FDE200F4ECFEF01200000E1106125AFDE21200AF
:10FDF2008A6AC00E936E280E65ECFFF0300E34EC6A
:10FE0200FFF00A0E6CECFFF0280E34ECFFF00A0E45
:10FE12006CECFFF0280E34ECFFF00A0E6CECFFF0F5
:10FE22000F0E34ECFFF00A0E6CECFFF0010E34EC16
:10FE3200FFF0020E65ECFFF0060E34ECFFF00A0E46
:10FE42006CECFFF0100E106E12000F6E0900F5CF71
:10FE5200EEFFDE5042ECFFF00F2EF8D71200C00E7C
:10FE620034ECFFF012000E6E0E380F0B8A6E8A9879
:10FE720053ECFFF00E500F0B8A6E8A9853ECFFF092
:10FE820012000E6E0E380F0B8A6E8A8853ECFFF04A
:10FE92000E500F0B8A6E8A8853ECFFF00A0E6CEC40
:10FEA200FFF012000000000000000000000000004F
:10FEB200000000008A8A000000000000000000002C
:10FEC200000000008A9A12000D6EFA0E6CECFFF030
:10FED2000D2EFBD712000B6E0B3A0F0E0B140C6E8D
:10FEE200F00E0B1676ECFFF01200000E0B060C5A09
:10FEF200FDE212007F9C7F8E030E066FF9ECFEF08E
:10FF020086EFFFF0000E056E120083ECFFF093EC1B
:10FF1200FFF0BCECFFF0B3ECFFF0D8ECFFF088EFA1
:10FF2200FFF01200000E036F000E026F0F01538DDF
:10FF32008D6A00010F0E966E010EEAECFFF0000EC4
:10FF4200846E84CF02F00F0E021BF00E966E010E2D
:10FF5200EAECFFF0000E846E84CF03F0033B0F0E39
:10FF6200031B1200000E0264D0D7000E0562CFD729
:10FF7200010E056F1200D8900233D8900333040E9D
:10FF8200036106C003F0040E026106C002F0000E17
:10FF9200996E0F0E876E000E9A6E03C088FF035192
:10FFA200032503250325D8900221046E12001200B6
:10FFB20004EE00F0010EF86EFD0EF76E920EF66E74
:10FFC2000451F620F66E010E24EE00F026ECFFF04E
:10FFD2001200096EFA0EF1ECFFF0092EFBD71200A7
:10FFE200076E073A0F0E0714086EF00E0716FBECA9
:0EFFF200FFF01200000E0706085AFDE2120092
:00000001FF
