:0400000006EF00F017
:10000800B4EFFEF0C1ECFEF0F8ECFEF008EF00F003
:020000040001F9
:10FD38004142434445464741414243444546474181
:10FD48001B01FC00EE00D300BC00B1009E008D003A
:10FD58008D007E00760069005E0058004F00460066
:10FD6800B7A21100B792FF0E65601100912A912A7F
:10FD7800000E836E030E836E1100956A9A6A8C6A70
:10FD8800916A030E836E010ECD6E2C93010E2C6FBB
:10FD98000B0E776EEE0E786E000E796EB682F28ECE
:10FDA800F28C1200656F04EE40F0010EF86EFD0E45
:10FDB800F76E480EF66E6551F626F6220900F5CF65
:10FDC80078FF0900F5CF79FF1200116E113A010E84
:10FDD8001114126E010E1116F3ECFEF01200000E53
:10FDE8001106125AFDE212007F9C7F8E030E066FE9
:10FDF800FEEFFEF0000E056EFF0E656E0DECFFF0D7
:10FE080030ECFFF035ECFFF04BECFFF002EFFFF0C9
:10FE18001200000E036F000E026F0F01538D8D6AE2
:10FE280000010F0E966E010E63ECFFF0000E846E5B
:10FE380084CF02F00F0E021B010E63ECFFF0F00EF0
:10FE4800966E010E63ECFFF0000E846E84CF03F013
:10FE5800033B0F0E031B1200000E0264FEEFFEF0C0
:10FE6800010C010E056FD8900233D8900333040EAD
:10FE7800036106C003F0040E026106C002F00351DC
:10FE8800032503250325D8900221046E120004518E
:10FE9800D6ECFEF0120004EE00F0010EF86EFD0E36
:10FEA800F76E380EF66E0451F620F66E010E24EE4B
:10FEB80000F0A6ECFFF00451D6ECFEF01200096E3B
:10FEC800FA0E6AECFFF0092EFBD71200076E073A0C
:10FED8000F0E0714086EF00E071674ECFFF01200F0
:10FEE800000E0706085AFDE212008A6AC00E936ED9
:10FEF800280EEAECFFF0300EB9ECFFF00A0EF1EC38
:10FF0800FFF0280EB9ECFFF00A0EF1ECFFF0280E16
:10FF1800B9ECFFF00A0EF1ECFFF00F0EB9ECFFF0B0
:10FF28000A0EF1ECFFF0010EB9ECFFF0020EEAEC5C
:10FF3800FFF0060EB9ECFFF00A0EF1ECFFF0100E20
:10FF4800106E12000F6E0900F5CFEEFFDE50C7EC01
:10FF5800FFF00F2EF8D70A0EEAECFFF0104E01D092
:10FF68001200C00EB9ECFFF012000E6E0E380F0B27
:10FF78008A6E8A98D8ECFFF00E500F0B8A6E8A981A
:10FF8800D8ECFFF012000E6E0E380F0B8A6E8A88BE
:10FF9800D8ECFFF00E500F0B8A6E8A88D8ECFFF071
:10FFA8000A0EF1ECFFF01200000000000000000053
:10FFB80000000000000000008A8A00000000000025
:10FFC80000000000000000008A9A12000D6EFA0E70
:10FFD800F1ECFFF00D2EFBD712000B6E0B3A0F0E53
:10FFE8000B140C6EF00E0B16FBECFFF01200000E5B
:08FFF8000B060C5AFDE2120099
:020000040030CA
:0700000015137F00B98B917D
:06000800FFC0FFE0FF4015
:00000001FF
