:0400000006EF00F017
:100008007BEFFDF08EECFDF0E1ECFCF058ECFFF03E
:10001800D0ECFDF0D5ECFDF0D1ECFEF00EEF00F0E9
:020000040001F9
:10F9B200414243444546474141424344454647410B
:10F9C20092800F0125810001010EC26E300EC16EC0
:10F9D200760EC06E1200000EC26E000EC16E000ED8
:10F9E200C06E1200C2B21200C450286EC28212004F
:10F9F200912A1200916A1200252A2851256026C0F8
:10FA020091FF28512560010E256427C091FF120045
:10FA1200800E286EFF0E266E000E276E27C091FF05
:10FA220012001B01FC00EE00D300BC00B1009E00DE
:10FA32008D008D007E00760069005E0058004F0048
:10FA420046001B01FC00E000D300BC00A8009600A9
:10FA52008D008D007E00700069005E0053004A0038
:10FA62004600BC009E00EE00D300BC00B100BC000A
:10FA7200D300BC00D3009E002041332042334323F5
:10FA8200342044342045344623344723342041343F
:10FA92002041342042344323352044352045354625
:10FAA200233547233520413520413320423320433B
:10FAB2003420443420453420463420473420413415
:10FAC200204134204234204335204435204535201E
:10FAD200463520473520413557463A535155202067
:10FAE2002044433A53415753433A4D494E4D414ABC
:10FAF2004B423A00B7A21100B792400E8314000E97
:10FB02001962110083BCF9ECFCF083ACFDECFCF053
:10FB1200000E836E030E836E1100956A9A6A8C6AD8
:10FB2200916A600E956E030E836E010ECD6E2C935C
:10FB32000B0E776EEE0E786E000E796EB682F28E36
:10FB4200F28C000E2A6E09ECFDF01200010EF86E26
:10FB5200FA0EF76E440EF66E1200010EF86EFA0EF1
:10FB6200F76E240EF66E1200010EF86EFA0EF76EA4
:10FB7200640EF66E120015C029F083BAA7ECFDF0F0
:10FB820083AAAEECFDF02944F626000EF722F822F5
:10FB92000900F5CF78FF0900F5CF79FF12007F9CAD
:10FBA2007F8E030E186F1200E2ECFDF005ECFEF002
:10FBB200196E000E1962120013ECFEF029ECFEF031
:10FBC2001200000E146F000E136F0F01538D8D6A19
:10FBD20000010F0E966E010EEAECFFF0000E846E2D
:10FBE20084CF13F00F0E131B000E13651200F00EDC
:10FBF200966E010EEAECFFF0000E846E84CF14F0D4
:10FC0200143B0F0E141B1200000E13650FEFFEF0D3
:10FC1200160E155C06E015C016F0000CFF0E156EF0
:10FC2200010C010C010E176FD8901333D8901433C6
:10FC3200040E146118C014F0040E136118C013F0FE
:10FC42001451142514251425D8901321156E120071
:10FC5200BCECFDF012007F9C7F8EFF0E0F6F120036
:10FC6200C3CF02F0C4CF03F0023A0F0E0314E838F8
:10FC72000226F00E0316033A020E046F100E056FF1
:10FC8200120002510403F4CF08F0F3CF07F003513E
:10FC92000503F4CF0AF0F3CF09F002510503F35044
:10FCA2000827F4500923E86A0A2303510403F35096
:10FCB2000827F4500923E86A0A23120002510403B8
:10FCC200F4CF08F0F3CF07F002510503F3500827F1
:10FCD200F4CF09F002510603F3500923000EF42277
:10FCE200F4CF0AF0120031ECFEF042ECFEF00A51C1
:10FCF2000B6F0A0E026F0751046F0851056F09510D
:10FD0200066F5FECFEF00A510C6F0751046F085149
:10FD1200056F0951066F5FECFEF00A510D6F075136
:10FD2200046F0851056F0951066F5FECFEF00A512E
:10FD32000E6F300E0B270C270D270E27120074ECC6
:10FD4200FEF0B2ECFEF01200F3ECFCF0C4CF11F0C6
:10FD5200FC0E11161151105D03E011C010F0000CE1
:10FD6200010C0B51C7ECFFF00C51C7ECFFF00D5129
:10FD7200C7ECFFF0250EC7ECFFF01200030DF3CF26
:10FD820023F0010EF86EFA0EF76EDA0EF66E2351BC
:10FD9200F626000EF722F822030EA5ECFFF0120061
:10FDA20083CF20F0600E2016205121623FECFFF03D
:10FDB20020C021F0A5ECFEF0246E010E24633FEC7E
:10FDC200FFF0EAECFEF0246E010E24633FECFFF03C
:10FDD20012001551225C03E015C022F0000C010C48
:10FDE200000EBFECFEF01200010EBFECFEF002ECC2
:10FDF200FFF0030EBFECFEF02CECFEF0A0ECFEF0E8
:10FE02001200020EBFECFEF01200040EBFECFEF078
:10FE12001200050EBFECFEF01200060EBFECFEF063
:10FE22001200070EBFECFEF01200010EF86EFA0E81
:10FE3200F76EAA0EF66E1200010EF86EFA0EF76E4B
:10FE42007A0EF66E1200080EBFECFEF0FF0E156180
:10FE520002EFFFF01551030DF3CF23F083BA1DEC2F
:10FE6200FFF083AA16ECFFF02351F626000EF722CC
:10FE7200F822030EA5ECFFF01200120085ECFFF051
:10FE8200F1ECFEF083BC06ECFFF083ACF5ECFEF087
:10FE9200B2ECFFF00AECFFF083BA12ECFFF083AA97
:10FEA2000EECFFF002ECFFF024ECFFF012008A6A85
:10FEB200C00E936E280EEAECFFF0300EB9ECFFF0A4
:10FEC2000A0EF1ECFFF0280EB9ECFFF00A0EF1EC8D
:10FED200FFF0280EB9ECFFF00A0EF1ECFFF00F0E66
:10FEE200B9ECFFF00A0EF1ECFFF0010EB9ECFFF0F5
:10FEF200020EEAECFFF0060EB9ECFFF00A0EF1EC8E
:10FF0200FFF0100E1F6E1200010EB9ECFFF0020E90
:10FF1200EAECFFF0060EB9ECFFF00A0EF1ECFFF08E
:10FF22001200800EB9ECFFF012002B6E2B389BEC06
:10FF3200FFF02B500F0B1D6E0A0E1D60070F260FD0
:10FF42001D24C7ECFFF012001E6E0900F550C7EC2D
:10FF5200FFF01E2EFAD7010EEAECFFF01F4E01D081
:10FF62001200C00EB9ECFFF0010EA5ECFFF012007A
:10FF72001D6E1D380F0B8A6E8A98D8ECFFF01D504B
:10FF82000F0B8A6E8A98D8ECFFF012001D6E1D3896
:10FF92000F0B8A6E8A88D8ECFFF01D500F0B8A6E09
:10FFA2008A88D8ECFFF00A0EF1ECFFF01200000094
:10FFB20000000000000000000000000000008A8A2B
:10FFC20000000000000000000000000000008A9A0B
:10FFD20012001C6EFA0EF1ECFFF01C2EFBD7120081
:10FFE2001A6E1A3A0F0E1A141B6EF00E1A16FBEC4A
:0EFFF200FFF01200000E1A061B5AFDE212006C
:020000040030CA
:0700000015137F00B98B917D
:06000800FFC0FFE0FF4015
:00000001FF
