:0400000006EF00F017
:10000800A9EFFDF0BCECFDF058ECFDF058ECFFF06A
:1000180055ECFEF05AECFEF00BECFEF00EEF00F0A3
:020000040001F9
:10FA88004142434445464741414243444546474134
:10FA980057463A53515520202044433A534157532F
:10FAA800433A4D494E4D414A92800F01258100014C
:10FAB800010EC26E300EC16E760EC06E1200000EC0
:10FAC800C26E000EC16E000EC06E1200C2B21200ED
:10FAD800C450266EC2821200912A1200916A120046
:10FAE8006AECFDF0232A2651236024C091FF010E01
:10FAF800236425C091FF1200800E266EFF0E246E2F
:10FB0800000E256E25C091FF12001B01FC00EE00BF
:10FB1800D300BC00B1009E008D008D007E007600F1
:10FB280069005E0058004F0046001B01FC00E00021
:10FB3800D300BC00A80096008D008D007E007000E8
:10FB480069005E0053004A004600B7A21100B79250
:10FB5800400E8314000E1762110083BC70ECFDF098
:10FB680083AC74ECFDF0000E836E030E836E1100FF
:10FB7800956A9A6A8C6A916A600E956E030E836E16
:10FB8800010ECD6E2C93010E2C6F0B0E776EEE0EC0
:10FB9800786E000E796EB682F28EF28C000E286EA8
:10FBA80080ECFDF01200010EF86EFB0EF76E320EBF
:10FBB800F66E1200010EF86EFB0EF76E120EF66E60
:10FBC8001200276F83BAD7ECFDF083AADEECFDF0B4
:10FBD8002744F626000EF722F82209000A00F5CF7E
:10FBE80079FF0800F5CF78FF1200030DF3CF21F05D
:10FBF800010EF86EFA0EF76E980EF66E2151F62683
:10FC0800000EF722F822030EA5ECFFF0120083CFB6
:10FC18001EF0600E1E161E511F6240ECFEF01EC044
:10FC28001FF03EECFFF0226E010E226340ECFEF066
:10FC380012001200000EF9ECFDF01200010EF9ECB2
:10FC4800FDF0020EF9ECFDF0030EF9ECFDF0B7EC57
:10FC5800FEF02BECFFF01200040EF9ECFDF01200A0
:10FC6800050EF9ECFDF01200060EF9ECFDF012009D
:10FC7800070EF9ECFDF0120085ECFFF01EECFEF02B
:10FC880083BC30ECFEF083AC22ECFEF0B2ECFFF06B
:10FC980034ECFEF083BA3CECFEF083AA38ECFEF0BC
:10FCA80012007F9C7F8E030E166F120067ECFEF029
:10FCB8008AECFEF0176E000E176212008EECFEF052
:10FCC800A4ECFEF01200000E136F000E126F0F016D
:10FCD800538D8D6A00010F0E966E010EEAECFFF04F
:10FCE800000E846E84CF12F00F0E121B000E1265E8
:10FCF8001200F00E966E010EEAECFFF0000E846E14
:10FD080084CF13F0133B0F0E131B1200000E126565
:10FD1800010C000C010E156FD8901233D8901333D4
:10FD2800040E136116C013F0040E126116C012F00F
:10FD38001351132513251325D8901221146E120080
:10FD48001451E5ECFDF01200010EF86EFA0EF76E94
:10FD5800880EF66E1451F626010EA5ECFFF014512C
:10FD6800E5ECFDF012007F9C7F8EFF0E0F6F1200F6
:10FD7800C3CF02F0C4CF03F0023A0F0E0314E838E1
:10FD88000226F00E0316033A020E046F100E056FDA
:10FD9800120002510403F4CF08F0F3CF07F0035127
:10FDA8000503F4CF0AF0F3CF09F002510503F3502D
:10FDB8000827F4500923E86A0A2303510403F3507F
:10FDC8000827F4500923E86A0A23120002510403A1
:10FDD800F4CF08F0F3CF07F002510503F3500827DA
:10FDE800F4CF09F002510603F3500923000EF42260
:10FDF800F4CF0AF01200BCECFEF0CDECFEF00A5194
:10FE08000B6F0A0E026F0751046F0851056F0951F5
:10FE1800066FEAECFEF00A510C6F0751046F0851A7
:10FE2800056F0951066FEAECFEF00A510D6F075194
:10FE3800046F0851056F0951066FEAECFEF00A518C
:10FE48000E6F300E0B270C270D270E27120030ECF3
:10FE5800FFF04BECFFF012006AECFDF0C450E840F4
:10FE6800E840105D06E0C4CF10F010431043FFECEB
:10FE7800FEF012006AECFDF0C450E840E840105D66
:10FE880005E0C4CF10F010431043000C010C0B51D7
:10FE9800C7ECFFF00C51C7ECFFF00D51C7ECFFF0B9
:10FEA800250EC7ECFFF012008A6AC00E936E280E6A
:10FEB800EAECFFF0300EB9ECFFF00A0EF1ECFFF0BF
:10FEC800280EB9ECFFF00A0EF1ECFFF0280EB9ECA1
:10FED800FFF00A0EF1ECFFF00F0EB9ECFFF00A0E7E
:10FEE800F1ECFFF0010EB9ECFFF0020EEAECFFF0C6
:10FEF800060EB9ECFFF00A0EF1ECFFF0100E1D6EC5
:10FF08001200010EB9ECFFF0020EEAECFFF0060E4B
:10FF1800B9ECFFF00A0EF1ECFFF01200800EB9EC1C
:10FF2800FFF01200296E29389BECFFF029500F0BC7
:10FF38001B6E0A0E1B60070F260F1B24C7ECFFF071
:10FF480012001C6E0900F550C7ECFFF01C2EFAD702
:10FF5800010EEAECFFF01D4E01D01200C00EB9EC04
:10FF6800FFF0010EA5ECFFF012001B6E1B380F0B03
:10FF78008A6E8A98D8ECFFF01B500F0B8A6E8A980D
:10FF8800D8ECFFF012001B6E1B380F0B8A6E8A88A4
:10FF9800D8ECFFF01B500F0B8A6E8A88D8ECFFF064
:10FFA8000A0EF1ECFFF01200000000000000000053
:10FFB80000000000000000008A8A00000000000025
:10FFC80000000000000000008A9A12001A6EFA0E63
:10FFD800F1ECFFF01A2EFBD71200186E183A0F0E2C
:10FFE8001814196EF00E1816FBECFFF01200000E34
:08FFF8001806195AFDE212007F
:020000040030CA
:0700000015137F00B98B917D
:06000800FFC0FFE0FF4015
:00000001FF
