:0400000006EF00F017
:10000800CBEFFEF0DEECFEF0F8ECFEF008EF00F0CF
:020000040001F9
:10FD860031323346343536453738394441304243CB
:10FD9600F2A41100F29465C016F0000E166511006B
:10FDA600912A000E836E030E836E162FD3EFFEF09C
:10FDB60065C016F01100956A9A6A8C6A916A030EFC
:10FDC600836EC80ED56EF28AF28E1200116E113A4B
:10FDD600010E1114126E010E1116F3ECFEF0120054
:10FDE600000E1106125AFDE212007F9C7F8E030E52
:10FDF600066F79ECFFF003EFFFF0000E056E1200C0
:10FE060000ECFFF013ECFFF036ECFFF00A6F0A2F60
:10FE160012003AECFFF052ECFFF003EFFFF0120095
:10FE2600000E036F000E026F0F01538D8D6A0001E5
:10FE36000F0E966E010E63ECFFF0000E846E84CFFB
:10FE460002F00F0E021B000E02651200F00E966EF7
:10FE5600010E63ECFFF0000E846E84CF03F0033BCB
:10FE66000F0E031B1200000E0265000C010C010EA2
:10FE7600056FD8900233D8900333040E036106C091
:10FE860003F0040E026106C002F0035103250325A8
:10FE96000325D8900221046E04C065F0120004EE1A
:10FEA60000F0010EF86EFD0EF76E860EF66E04512A
:10FEB600F620F66E010E24EE00F0A6ECFFF012001E
:10FEC600096EFA0E6AECFFF0092EFBD71200076ED8
:10FED600073A0F0E0714086EF00E071674ECFFF0C3
:10FEE6001200000E0706085AFDE212008A6AC00ECA
:10FEF600936E280EEAECFFF0300EB9ECFFF00A0E16
:10FF0600F1ECFFF0280EB9ECFFF00A0EF1ECFFF071
:10FF1600280EB9ECFFF00A0EF1ECFFF00F0EB9EC6B
:10FF2600FFF00A0EF1ECFFF0010EB9ECFFF0020E45
:10FF3600EAECFFF0060EB9ECFFF00A0EF1ECFFF06A
:10FF4600100E106E12000F6E0900F5CFEEFFDE5098
:10FF5600C7ECFFF00F2EF8D70A0EEAECFFF0104EB2
:10FF660001D01200C00EB9ECFFF012000E6E0E3872
:10FF76000F0B8A6E8A98D8ECFFF00E500F0B8A6E24
:10FF86008A98D8ECFFF012000E6E0E380F0B8A6EB0
:10FF96008A88D8ECFFF00E500F0B8A6E8A88D8EC50
:10FFA600FFF00A0EF1ECFFF0120000000000000066
:10FFB600000000000000000000008A8A0000000027
:10FFC600000000000000000000008A9A12000D6E7A
:10FFD600FA0EF1ECFFF00D2EFBD712000B6E0B3A6A
:10FFE6000F0E0B140C6EF00E0B16FBECFFF012004E
:0AFFF600000E0B060C5AFDE212008B
:020000040030CA
:0700000015137F00B98B917D
:06000800FFC0FFE0FF4015
:00000001FF
