:0400000006EF00F017
:10000800B6EFFDF0C9ECFDF065ECFDF058ECFFF043
:1000180062ECFEF067ECFEF018ECFEF00EEF00F07C
:020000040001F9
:10FAA200414243444546474141424344454647411A
:10FAB20057463A53515520202044433A5341575315
:10FAC200433A4D494E4D414A92800F012581000132
:10FAD200010EC26E300EC16E760EC06E1200000EA6
:10FAE200C26E000EC16E000EC06E1200C2B21200D3
:10FAF200C450256EC2821200912A1200916A12002D
:10FB020077ECFDF0222A2551226023C091FF010EDD
:10FB1200226424C091FF1200800E256EFF0E236E18
:10FB2200000E246E24C091FF12001B01FC00EE00A7
:10FB3200D300BC00B1009E008D008D007E007600D7
:10FB420069005E0058004F0046001B01FC00E00007
:10FB5200D300BC00A80096008D008D007E007000CE
:10FB620069005E0053004A004600B7A21100B79236
:10FB7200400E8314000E1762110083BC7DECFDF071
:10FB820083AC81ECFDF0000E836E030E836E1100D8
:10FB9200956A9A6A8C6A916A600E956E030E836EFC
:10FBA200010ECD6E2C93010E2C6F0B0E776EEE0EA6
:10FBB200786E000E796EB682F28EF28C000E276E8F
:10FBC2008DECFDF01200010EF86EFB0EF76E4C0E7E
:10FBD200F66E1200010EF86EFB0EF76E2C0EF66E2C
:10FBE2001200266F83BAE4ECFDF083AAEBECFDF081
:10FBF2002644F626000EF722F82209000A00F5CF65
:10FC020079FF0800F5CF78FF1200030DF3CF21F042
:10FC1200010EF86EFA0EF76EB20EF66E2151F6264E
:10FC2200000EF722F822030EA5ECFFF0120083CF9C
:10FC32001EF0600E1E161E511F624DECFEF077EC98
:10FC4200FDF0C45020624DECFEF0C4CF20F01EC087
:10FC52001FF01200000E06ECFEF01200010E06EC80
:10FC6200FEF0020E06ECFEF0030E06ECFEF0C4EC13
:10FC7200FEF038ECFFF01200040E06ECFEF012006B
:10FC8200050E06ECFEF01200060E06ECFEF0120067
:10FC9200070E06ECFEF0120085ECFFF02BECFEF0F6
:10FCA20083BC3DECFEF083AC2FECFEF0B2ECFFF037
:10FCB20041ECFEF083BA49ECFEF083AA45ECFEF07B
:10FCC20012007F9C7F8E030E166F120074ECFEF002
:10FCD20097ECFEF0176E000E176212009BECFEF01E
:10FCE200B1ECFEF01200000E136F000E126F0F0146
:10FCF200538D8D6A00010F0E966E010EEAECFFF035
:10FD0200000E846E84CF12F00F0E121B000E1265CD
:10FD12001200F00E966E010EEAECFFF0000E846EF9
:10FD220084CF13F0133B0F0E131B1200000E12654B
:10FD3200010C000C010E156FD8901233D8901333BA
:10FD4200040E136116C013F0040E126116C012F0F5
:10FD52001351132513251325D8901221146E120066
:10FD62001451F2ECFDF01200010EF86EFA0EF76E6D
:10FD7200A20EF66E1451F626010EA5ECFFF01451F8
:10FD8200F2ECFDF012007F9C7F8EFF0E0F6F1200CF
:10FD9200C3CF02F0C4CF03F0023A0F0E0314E838C7
:10FDA2000226F00E0316033A020E046F100E056FC0
:10FDB200120002510403F4CF08F0F3CF07F003510D
:10FDC2000503F4CF0AF0F3CF09F002510503F35013
:10FDD2000827F4500923E86A0A2303510403F35065
:10FDE2000827F4500923E86A0A2312000251040387
:10FDF200F4CF08F0F3CF07F002510503F3500827C0
:10FE0200F4CF09F002510603F3500923000EF42245
:10FE1200F4CF0AF01200C9ECFEF0DAECFEF00A515F
:10FE22000B6F0A0E026F0751046F0851056F0951DB
:10FE3200066FF7ECFEF00A510C6F0751046F085180
:10FE4200056F0951066FF7ECFEF00A510D6F07516D
:10FE5200046F0851056F0951066FF7ECFEF00A5165
:10FE62000E6F300E0B270C270D270E2712003DECCC
:10FE7200FFF04BECFFF0120077ECFDF0C450E840CD
:10FE8200E840105D06E0C4CF10F0104310430CECC4
:10FE9200FFF012000B51C7ECFFF00C51C7ECFFF062
:10FEA2000D51C7ECFFF0250EC7ECFFF012008A6A75
:10FEB200C00E936E280EEAECFFF0300EB9ECFFF0A4
:10FEC2000A0EF1ECFFF0280EB9ECFFF00A0EF1EC8D
:10FED200FFF0280EB9ECFFF00A0EF1ECFFF00F0E66
:10FEE200B9ECFFF00A0EF1ECFFF0010EB9ECFFF0F5
:10FEF200020EEAECFFF0060EB9ECFFF00A0EF1EC8E
:10FF0200FFF0100E1D6E1200010EB9ECFFF0020E92
:10FF1200EAECFFF0060EB9ECFFF00A0EF1ECFFF08E
:10FF22001200800EB9ECFFF01200286E28389BEC0C
:10FF3200FFF028500F0B1B6E0A0E1B60070F260FD7
:10FF42001B24C7ECFFF012001C6E0900F550C7EC31
:10FF5200FFF01C2EFAD7010EEAECFFF01D4E01D085
:10FF62001200C00EB9ECFFF0010EA5ECFFF012007A
:10FF72001B6E1B380F0B8A6E8A98D8ECFFF01B5051
:10FF82000F0B8A6E8A98D8ECFFF012001B6E1B389A
:10FF92000F0B8A6E8A88D8ECFFF01B500F0B8A6E0B
:10FFA2008A88D8ECFFF00A0EF1ECFFF01200000094
:10FFB20000000000000000000000000000008A8A2B
:10FFC20000000000000000000000000000008A9A0B
:10FFD20012001A6EFA0EF1ECFFF01A2EFBD7120085
:10FFE200186E183A0F0E1814196EF00E1816FBEC54
:0EFFF200FFF01200000E1806195AFDE2120070
:020000040030CA
:0700000015137F00B98B917D
:06000800FFC0FFE0FF4015
:00000001FF
