:0400000006EF00F017
:10000800A6EFFEF0B9ECFEF00BECFEF058ECFFF0BA
:10001800F6ECFEF0FBECFEF06EECFEF00EEF00F0FE
:020000040001F9
:10FBF40041424344454647414142434445464741C7
:10FC040057463A53515553415753433A4D494E4D34
:10FC1400414A92800F0125810001010EC26E300E0F
:10FC2400C16E760EC06E1200000EC26E000EC16E62
:10FC3400000EC06E1200C2B21200C450106EC28216
:10FC44001200912A1200916A12001DECFEF00D2A96
:10FC540010510D600EC091FF010E0D640FC091FF95
:10FC64001200800E106EFF0E0E6E000E0F6E0FC08F
:10FC740091FF12001B01FC00EE00D300BC00B10098
:10FC84009E008D008D007E00760069005E005800A5
:10FC94004F0046001B01FC00E000D300BC00A8009C
:10FCA40096008D008D007E00700069005E00530098
:10FCB4004A004600030DF3CF13F0010EF86EFC0E5C
:10FCC400F76E040EF66E1351F626000EF722F82294
:10FCD400030EA5ECFFF0120083CF11F0600E111695
:10FCE4001151126291ECFEF011C012F01200000EDC
:10FCF4005CECFEF01200010E5CECFEF01200020E51
:10FD04005CECFEF01200030E5CECFEF01200040E3C
:10FD14005CECFEF01200050E5CECFEF0120085ECCB
:10FD2400FFF079ECFEF083BC81ECFEF083AC7DEC5B
:10FD3400FEF0B2ECFFF085ECFEF083BA8DECFEF041
:10FD440083AA89ECFEF01200B7A21100B792400E0C
:10FD54008314000E0662110083BC23ECFEF083AC16
:10FD640027ECFEF0000E836E030E836E1100956A7D
:10FD74009A6A8C6A916A600E956E030E836E010E08
:10FD8400CD6E2C93010E2C6F0B0E776EEE0E786EEB
:10FD9400000E796EB682F28EF28C000E156E33EC84
:10FDA400FEF01200010EF86EFC0EF76E980EF66E61
:10FDB4001200010EF86EFC0EF76E780EF66E12004D
:10FDC400146F83BAD4ECFEF083AADBECFEF0144487
:10FDD400F626000EF722F82209000A00F5CF79FF73
:10FDE4000800F5CF78FF12007F9C7F8E030E056F0D
:10FDF400120008ECFFF02BECFFF0066E000E06621A
:10FE040012002FECFFF045ECFFF01200000E026F21
:10FE1400000E016F0F01538D8D6A00010F0E966E57
:10FE2400010EEAECFFF0000E846E84CF01F00F0E99
:10FE3400011B000E01651200F00E966E010EEAEC35
:10FE4400FFF0000E846E84CF02F0023B0F0E021B03
:10FE54001200000E0165010C000C010E046FD89015
:10FE64000133D8900233040E026105C002F0040E7F
:10FE7400016105C001F00251022502250225D89036
:10FE84000121036E12000351E2ECFEF01200010E98
:10FE9400F86EFB0EF76EF40EF66E0351F626010EA5
:10FEA400A5ECFFF00351E2ECFEF012008A6AC00EEA
:10FEB400936E280EEAECFFF0300EB9ECFFF00A0E58
:10FEC400F1ECFFF0280EB9ECFFF00A0EF1ECFFF0B4
:10FED400280EB9ECFFF00A0EF1ECFFF00F0EB9ECAE
:10FEE400FFF00A0EF1ECFFF0010EB9ECFFF0020E88
:10FEF400EAECFFF0060EB9ECFFF00A0EF1ECFFF0AD
:10FF0400100E0C6E1200010EB9ECFFF0020EEAECBA
:10FF1400FFF0060EB9ECFFF00A0EF1ECFFF0120050
:10FF2400800EB9ECFFF01200166E16389BECFFF051
:10FF340016500F0B0A6E0A0E0A60070F260F0A24CA
:10FF4400C7ECFFF012000B6E0900F550C7ECFFF090
:10FF54000B2EFAD7010EEAECFFF00C4E01D0120082
:10FF6400C00EB9ECFFF0010EA5ECFFF012000A6E12
:10FF74000A380F0B8A6E8A98D8ECFFF00A500F0BE0
:10FF84008A6E8A98D8ECFFF012000A6E0A380F0BBA
:10FF94008A6E8A88D8ECFFF00A500F0B8A6E8A8822
:10FFA400D8ECFFF00A0EF1ECFFF0120000000000A4
:10FFB4000000000000000000000000008A8A000029
:10FFC4000000000000000000000000008A9A1200F7
:10FFD400096EFA0EF1ECFFF0092EFBD71200076E42
:10FFE400073A0F0E0714086EF00E0716FBECFFF02D
:0CFFF4001200000E0706085AFDE2120081
:020000040030CA
:0700000015137F00B98B917D
:06000800FFC0FFE0FF4015
:00000001FF
