:0400000006EF00F017
:10000800B3EFFEF0BDECFEF0F5ECFEF008EF00F00B
:020000040001F9
:10FD36004142434445464741414243444546474183
:10FD46001B01FC00EE00D300BC00B100A800A80017
:10FD56001B01FC00EE00D300BC00B100A800A80007
:10FD6600B7A21100B792912A912A000E836E030E54
:10FD7600836E1100956A9A6A8C6A916A030E836E85
:10FD8600010ECD6E2C93010E2C6F0B0E776EEE0EC0
:10FD9600786E000E796EB682F28EF28C1200066FC5
:10FDA60000EE07F0010EF86EFD0EF76E460EF66ECB
:10FDB6000651F620F620F66E0900F5CF78FF090009
:10FDC600F5CF79FF1200006E003A010E0014016EA5
:10FDD600010E0016F0ECFEF01200000E0006015AAD
:10FDE600FDE212007F9C7F8E030E4D6F79ECFFF0D3
:10FDF60002EFFFF0000E4C6E000E656E1200FDEC79
:10FE0600FEF00FECFFF032ECFFF036ECFFF04EECBC
:10FE1600FFF002EFFFF01200000E4A6F000E496F6E
:10FE26000F01538D8D6A00010F0E966E010E63EC65
:10FE3600FFF0000E846E84CF49F00F0E491B000EB2
:10FE460049651200F00E966E010E63ECFFF0000E8F
:10FE5600846E84CF4AF04A3B0F0E4A1B1200000EF6
:10FE66004965C8D7010C010E4C6FD8904933D8901C
:10FE76004A33040E4A614DC04AF0040E49614DC032
:10FE860049F04A514A254A254A25D89049214B6EC0
:10FE96004BC065F01200120004EE00F0010EF86E81
:10FEA600FD0EF76E360EF66E4B51F620F66E010E0F
:10FEB60024EE00F0A6ECFFF04B51D2ECFEF012005F
:10FEC600506EFA0E6AECFFF0502EFBD712004E6E03
:10FED6004E3A0F0E4E144F6EF00E4E1674ECFFF0A7
:10FEE6001200000E4E064F5AFDE212008A6AC00E3C
:10FEF600936E280EEAECFFF0300EB9ECFFF00A0E16
:10FF0600F1ECFFF0280EB9ECFFF00A0EF1ECFFF071
:10FF1600280EB9ECFFF00A0EF1ECFFF00F0EB9EC6B
:10FF2600FFF00A0EF1ECFFF0010EB9ECFFF0020E45
:10FF3600EAECFFF0060EB9ECFFF00A0EF1ECFFF06A
:10FF4600100E576E1200566E0900F5CFEEFFDE500A
:10FF5600C7ECFFF0562EF8D70A0EEAECFFF0574E24
:10FF660001D01200C00EB9ECFFF01200556E5538E4
:10FF76000F0B8A6E8A98D8ECFFF055500F0B8A6EDD
:10FF86008A98D8ECFFF01200556E55380F0B8A6E22
:10FF96008A88D8ECFFF055500F0B8A6E8A88D8EC09
:10FFA600FFF00A0EF1ECFFF0120000000000000066
:10FFB600000000000000000000008A8A0000000027
:10FFC600000000000000000000008A9A1200546E33
:10FFD600FA0EF1ECFFF0542EFBD71200526E523A95
:10FFE6000F0E5214536EF00E5216FBECFFF0120079
:0AFFF600000E5206535AFDE21200FD
:020000040030CA
:0700000015137F00B98B917D
:06000800FFC0FFE0FF4015
:00000001FF
