:0400000006EF00F017
:10000800A1EFFDF0B4ECFDF012ECFDF058ECFFF0C0
:10001800EFECFDF0F4ECFDF053ECFEF00EEF00F029
:020000040001F9
:10FA140041424344454647414142434445464741A8
:10FA240092800F0125810001010EC26E300EC16E5D
:10FA3400760EC06E1200000EC26E000EC16E000E75
:10FA4400C06E1200C2B21200C450276EC2821200ED
:10FA5400912A1200916A120024ECFDF0242A275105
:10FA6400246025C091FF010E246426C091FF12007A
:10FA7400800E276EFF0E256E000E266E26C091FFA7
:10FA840012001B01FC00EE00D300BC00B1009E007C
:10FA94008D008D007E00760069005E0058004F00E6
:10FAA40046001B01FC00E000D300BC00A800960047
:10FAB4008D008D007E00700069005E0053004A00D6
:10FAC400460020413320423343233420443420452C
:10FAD40034462334472334204134204134204234F3
:10FAE40043233520443520453546233547233520E7
:10FAF40041352041332042332043342044342045CF
:10FB040034204634204734204134204134204234C8
:10FB140020433520443520453520463520473520BF
:10FB2400413557463A53515520202044433A5341D6
:10FB34005753433A4D494E4D414A4B423A00B7A2BE
:10FB44001100B792400E8314000E1862110083BC9A
:10FB54002AECFDF083AC2EECFDF0000E836E030E58
:10FB6400836E1100956A9A6A8C6A916A600E956E2A
:10FB7400030E836E010ECD6E2C930B0E776EEE0E7C
:10FB8400786E000E796EB682F28EF28C000E296EBB
:10FB94003AECFDF01200010EF86EFA0EF76EA60EA6
:10FBA400F66E1200010EF86EFA0EF76E860EF66E01
:10FBB400120015C028F083BACDECFDF083AAD4EC72
:10FBC400FDF02844F626000EF722F8220900F5CFAE
:10FBD40078FF0800F5CF79FF12007F9C7F8E030E1B
:10FBE400176F120001ECFEF024ECFEF0186E000E0C
:10FBF4001862120028ECFEF03EECFEF01200000E3B
:10FC0400146F000E136F0F01538D8D6A00010F0ED8
:10FC1400966E010EEAECFFF0000E846E84CF13F0B2
:10FC24000F0E131B000E13651200F00E966E010EDC
:10FC3400EAECFFF0000E846E84CF14F0143B0F0E38
:10FC4400141B1200000E1365010C000C010E166F3C
:10FC5400D8901333D8901433040E146117C014F0E1
:10FC6400040E136117C013F0145114251425142520
:10FC7400D8901321156E1200DBECFDF01200030D79
:10FC8400F3CF22F0010EF86EFB0EF76E260EF66E21
:10FC94002251F626000EF722F822030EA5ECFFF0FF
:10FCA400120083CF1FF0600E1F161F512062ACECB0
:10FCB400FEF01FC020F03EECFFF0236E010E236324
:10FCC400ACECFEF012001200000E41ECFEF012004B
:10FCD400010E41ECFEF077ECFEF0030E41ECFEF079
:10FCE400C5ECFEF039ECFFF01200020E41ECFEF020
:10FCF4001200040E41ECFEF01200050E41ECFEF081
:10FD04001200060E41ECFEF01200070E41ECFEF06C
:10FD14001200010EF86EFA0EF76EF60EF66E120071
:10FD2400010EF86EFA0EF76EC60EF66E1200080E8D
:10FD340041ECFEF01551030DF3CF22F092ECFEF0EE
:10FD44002251F626000EF722F822030EA5ECFFF04E
:10FD54001200120085ECFFF066ECFEF083BC7BEC35
:10FD6400FEF083AC6AECFEF0B2ECFFF07FECFEF048
:10FD740083BA87ECFEF083AA83ECFEF077ECFEF006
:10FD840099ECFEF012007F9C7F8EFF0E0F6F120025
:10FD9400C3CF02F0C4CF03F0023A0F0E0314E838C5
:10FDA4000226F00E0316033A020E046F100E056FBE
:10FDB400120002510403F4CF08F0F3CF07F003510B
:10FDC4000503F4CF0AF0F3CF09F002510503F35011
:10FDD4000827F4500923E86A0A2303510403F35063
:10FDE4000827F4500923E86A0A2312000251040385
:10FDF400F4CF08F0F3CF07F002510503F3500827BE
:10FE0400F4CF09F002510603F3500923000EF42243
:10FE1400F4CF0AF01200CAECFEF0DBECFEF00A515B
:10FE24000B6F0A0E026F0751046F0851056F0951D9
:10FE3400066FF8ECFEF00A510C6F0751046F08517D
:10FE4400056F0951066FF8ECFEF00A510D6F07516A
:10FE5400046F0851056F0951066FF8ECFEF00A5162
:10FE64000E6F300E0B270C270D270E2712000DECFA
:10FE7400FFF04BECFFF0120024ECFDF0C4CF11F0C6
:10FE8400FC0E11161151105D03E011C010F0000CAE
:10FE9400010C0B51C7ECFFF00C51C7ECFFF00D51F6
:10FEA400C7ECFFF0250EC7ECFFF012008A6AC00E03
:10FEB400936E280EEAECFFF0300EB9ECFFF00A0E58
:10FEC400F1ECFFF0280EB9ECFFF00A0EF1ECFFF0B4
:10FED400280EB9ECFFF00A0EF1ECFFF00F0EB9ECAE
:10FEE400FFF00A0EF1ECFFF0010EB9ECFFF0020E88
:10FEF400EAECFFF0060EB9ECFFF00A0EF1ECFFF0AD
:10FF0400100E1E6E1200010EB9ECFFF0020EEAECA8
:10FF1400FFF0060EB9ECFFF00A0EF1ECFFF0120050
:10FF2400800EB9ECFFF012002A6E2A389BECFFF029
:10FF34002A500F0B1C6E0A0E1C60070F260F1C2480
:10FF4400C7ECFFF012001D6E0900F550C7ECFFF07E
:10FF54001D2EFAD7010EEAECFFF01E4E01D012005E
:10FF6400C00EB9ECFFF0010EA5ECFFF012001C6E00
:10FF74001C380F0B8A6E8A98D8ECFFF01C500F0BBC
:10FF84008A6E8A98D8ECFFF012001C6E1C380F0B96
:10FF94008A6E8A88D8ECFFF01C500F0B8A6E8A8810
:10FFA400D8ECFFF00A0EF1ECFFF0120000000000A4
:10FFB4000000000000000000000000008A8A000029
:10FFC4000000000000000000000000008A9A1200F7
:10FFD4001B6EFA0EF1ECFFF01B2EFBD71200196E0C
:10FFE400193A0F0E19141A6EF00E1916FBECFFF0E5
:0CFFF4001200000E19061A5AFDE212005D
:020000040030CA
:0700000015137F00B98B917D
:06000800FFC0FFE0FF4015
:00000001FF
