:0400000006EF00F017
:10000800B7EFFDF0CAECFDF066ECFDF058ECFFF040
:1000180060ECFEF065ECFEF016ECFEF00EEF00F082
:020000040001F9
:10FAA4004142434445464741414243444546474118
:10FAB40057463A53515520202044433A5341575313
:10FAC400433A4D494E4D414A92800F012581000130
:10FAD400010EC26E300EC16E760EC06E1200000EA4
:10FAE400C26E000EC16E000EC06E1200C2B21200D1
:10FAF400C450276EC2821200912A1200916A120029
:10FB040078ECFDF0242A2751246025C091FF010ED2
:10FB1400246426C091FF1200800E276EFF0E256E0E
:10FB2400000E266E26C091FF12001B01FC00EE00A1
:10FB3400D300BC00B1009E008D008D007E007600D5
:10FB440069005E0058004F0046001B01FC00E00005
:10FB5400D300BC00A80096008D008D007E007000CC
:10FB640069005E0053004A004600B7A21100B79234
:10FB7400400E8314000E1862110083BC7EECFDF06D
:10FB840083AC82ECFDF0000E836E030E836E1100D5
:10FB9400956A9A6A8C6A916A600E956E030E836EFA
:10FBA400010ECD6E2C930B0E776EEE0E786E000E5A
:10FBB400796EB682F28EF28C000E296E8EECFDF018
:10FBC4001200010EF86EFB0EF76E4E0EF66E12006A
:10FBD400010EF86EFB0EF76E2E0EF66E1200286FF5
:10FBE40083BAE3ECFDF083AAEAECFDF02844F626A0
:10FBF400000EF722F8220900F5CF78FF0800F5CFB0
:10FC040079FF1200030DF3CF22F0010EF86EFA0E05
:10FC1400F76EB40EF66E2251F626000EF722F82285
:10FC2400030EA5ECFFF0120083CF1FF0600E1F1629
:10FC34001F5120624BECFEF01FC020F03EECFFF0A1
:10FC4400236E010E23634BECFEF012001200000E33
:10FC540004ECFEF01200010E04ECFEF0020E04ECC3
:10FC6400FEF0030E04ECFEF0C2ECFEF036ECFFF006
:10FC74001200040E04ECFEF01200050E04ECFEF07B
:10FC84001200060E04ECFEF01200070E04ECFEF067
:10FC9400120085ECFFF029ECFEF083BC3BECFEF097
:10FCA40083AC2DECFEF0B2ECFFF03FECFEF083BA37
:10FCB40047ECFEF083AA43ECFEF012007F9C7F8E9B
:10FCC400030E176F120072ECFEF095ECFEF0186E46
:10FCD400000E1862120099ECFEF0AFECFEF0120078
:10FCE400000E146F000E136F0F01538D8D6A000107
:10FCF4000F0E966E010EEAECFFF0000E846E84CFB8
:10FD040013F00F0E131B000E13651200F00E966E07
:10FD1400010EEAECFFF0000E846E84CF14F0143B65
:10FD24000F0E141B1200000E1365010C000C010EC3
:10FD3400166FD8901333D8901433040E146117C07F
:10FD440014F0040E136117C013F014511425142574
:10FD54001425D8901321156E12001551F1ECFDF005
:10FD64001200010EF86EFA0EF76EA40EF66E15511F
:10FD7400F626010EA5ECFFF01551F1ECFDF0120092
:10FD84007F9C7F8EFF0E0F6F1200C3CF02F0C4CF93
:10FD940003F0023A0F0E0314E8380226F00E03169D
:10FDA400033A020E046F100E056F12000251040391
:10FDB400F4CF08F0F3CF07F003510503F4CF0AF0B2
:10FDC400F3CF09F002510503F3500827F450092337
:10FDD400E86A0A2303510403F3500827F450092363
:10FDE400E86A0A23120002510403F4CF08F0F3CFA7
:10FDF40007F002510503F3500827F4CF09F002512C
:10FE04000603F3500923000EF422F4CF0AF0120083
:10FE1400C7ECFEF0D8ECFEF00A510B6F0A0E026F2D
:10FE24000751046F0851056F0951066FF5ECFEF098
:10FE34000A510C6F0751046F0851056F0951066F81
:10FE4400F5ECFEF00A510D6F0751046F0851056F70
:10FE54000951066FF5ECFEF00A510E6F300E0B27B8
:10FE64000C270D270E2712000AECFFF04BECFFF0D5
:10FE740012000AECFFF0120078ECFDF0C4CF11F090
:10FE8400FC0E11161151105D03E011C010F0000CAE
:10FE9400010C0B51C7ECFFF00C51C7ECFFF00D51F6
:10FEA400C7ECFFF0250EC7ECFFF012008A6AC00E03
:10FEB400936E280EEAECFFF0300EB9ECFFF00A0E58
:10FEC400F1ECFFF0280EB9ECFFF00A0EF1ECFFF0B4
:10FED400280EB9ECFFF00A0EF1ECFFF00F0EB9ECAE
:10FEE400FFF00A0EF1ECFFF0010EB9ECFFF0020E88
:10FEF400EAECFFF0060EB9ECFFF00A0EF1ECFFF0AD
:10FF0400100E1E6E1200010EB9ECFFF0020EEAECA8
:10FF1400FFF0060EB9ECFFF00A0EF1ECFFF0120050
:10FF2400800EB9ECFFF012002A6E2A389BECFFF029
:10FF34002A500F0B1C6E0A0E1C60070F260F1C2480
:10FF4400C7ECFFF012001D6E0900F550C7ECFFF07E
:10FF54001D2EFAD7010EEAECFFF01E4E01D012005E
:10FF6400C00EB9ECFFF0010EA5ECFFF012001C6E00
:10FF74001C380F0B8A6E8A98D8ECFFF01C500F0BBC
:10FF84008A6E8A98D8ECFFF012001C6E1C380F0B96
:10FF94008A6E8A88D8ECFFF01C500F0B8A6E8A8810
:10FFA400D8ECFFF00A0EF1ECFFF0120000000000A4
:10FFB4000000000000000000000000008A8A000029
:10FFC4000000000000000000000000008A9A1200F7
:10FFD4001B6EFA0EF1ECFFF01B2EFBD71200196E0C
:10FFE400193A0F0E19141A6EF00E1916FBECFFF0E5
:0CFFF4001200000E19061A5AFDE212005D
:020000040030CA
:0700000015137F00B98B917D
:06000800FFC0FFE0FF4015
:00000001FF
